{
  "contractName": "MarketPlace",
  "abi": [
    {
      "inputs": [],
      "stateMutability": "nonpayable",
      "type": "constructor"
    },
    {
      "anonymous": false,
      "inputs": [
        {
          "indexed": true,
          "internalType": "uint256",
          "name": "itemId",
          "type": "uint256"
        },
        {
          "indexed": true,
          "internalType": "address",
          "name": "nftContract",
          "type": "address"
        },
        {
          "indexed": true,
          "internalType": "uint256",
          "name": "tokenId",
          "type": "uint256"
        },
        {
          "indexed": false,
          "internalType": "address",
          "name": "seller",
          "type": "address"
        },
        {
          "indexed": false,
          "internalType": "address",
          "name": "owner",
          "type": "address"
        },
        {
          "indexed": false,
          "internalType": "uint256",
          "name": "price",
          "type": "uint256"
        }
      ],
      "name": "MarketItemCreated",
      "type": "event"
    },
    {
      "inputs": [
        {
          "internalType": "uint256",
          "name": "marketItemId",
          "type": "uint256"
        }
      ],
      "name": "getMarketItem",
      "outputs": [
        {
          "components": [
            {
              "internalType": "uint256",
              "name": "itemId",
              "type": "uint256"
            },
            {
              "internalType": "address",
              "name": "nftContract",
              "type": "address"
            },
            {
              "internalType": "uint256",
              "name": "tokenId",
              "type": "uint256"
            },
            {
              "internalType": "address payable",
              "name": "seller",
              "type": "address"
            },
            {
              "internalType": "address payable",
              "name": "owner",
              "type": "address"
            },
            {
              "internalType": "uint256",
              "name": "price",
              "type": "uint256"
            }
          ],
          "internalType": "struct MarketPlace.MarketItem",
          "name": "",
          "type": "tuple"
        }
      ],
      "stateMutability": "view",
      "type": "function",
      "constant": true
    },
    {
      "inputs": [
        {
          "internalType": "address",
          "name": "nftContract",
          "type": "address"
        },
        {
          "internalType": "uint256",
          "name": "tokenId",
          "type": "uint256"
        },
        {
          "internalType": "uint256",
          "name": "price",
          "type": "uint256"
        }
      ],
      "name": "createMarketItem",
      "outputs": [],
      "stateMutability": "payable",
      "type": "function",
      "payable": true
    },
    {
      "inputs": [
        {
          "internalType": "address",
          "name": "nftContract",
          "type": "address"
        },
        {
          "internalType": "uint256",
          "name": "itemId",
          "type": "uint256"
        }
      ],
      "name": "createMarketSale",
      "outputs": [],
      "stateMutability": "payable",
      "type": "function",
      "payable": true
    },
    {
      "inputs": [],
      "name": "fetchMarketItem",
      "outputs": [
        {
          "components": [
            {
              "internalType": "uint256",
              "name": "itemId",
              "type": "uint256"
            },
            {
              "internalType": "address",
              "name": "nftContract",
              "type": "address"
            },
            {
              "internalType": "uint256",
              "name": "tokenId",
              "type": "uint256"
            },
            {
              "internalType": "address payable",
              "name": "seller",
              "type": "address"
            },
            {
              "internalType": "address payable",
              "name": "owner",
              "type": "address"
            },
            {
              "internalType": "uint256",
              "name": "price",
              "type": "uint256"
            }
          ],
          "internalType": "struct MarketPlace.MarketItem[]",
          "name": "",
          "type": "tuple[]"
        }
      ],
      "stateMutability": "view",
      "type": "function",
      "constant": true
    },
    {
      "inputs": [],
      "name": "fetchMyNFTs",
      "outputs": [
        {
          "components": [
            {
              "internalType": "uint256",
              "name": "itemId",
              "type": "uint256"
            },
            {
              "internalType": "address",
              "name": "nftContract",
              "type": "address"
            },
            {
              "internalType": "uint256",
              "name": "tokenId",
              "type": "uint256"
            },
            {
              "internalType": "address payable",
              "name": "seller",
              "type": "address"
            },
            {
              "internalType": "address payable",
              "name": "owner",
              "type": "address"
            },
            {
              "internalType": "uint256",
              "name": "price",
              "type": "uint256"
            }
          ],
          "internalType": "struct MarketPlace.MarketItem[]",
          "name": "",
          "type": "tuple[]"
        }
      ],
      "stateMutability": "view",
      "type": "function",
      "constant": true
    }
  ],
  "bytecode": "0x608060405267016345785d8a000060045534801561001c57600080fd5b506001600055600380546001600160a01b03191633179055610b20806100436000396000f3fe60806040526004361061004a5760003560e01c8063202e37401461004f57806358eb2df51461007a5780638fafd0211461008f578063c23b139e146100a4578063c7be7a49146100b7575b600080fd5b34801561005b57600080fd5b506100646100e4565b6040516100719190610922565b60405180910390f35b61008d61008836600461086a565b610295565b005b34801561009b57600080fd5b50610064610469565b61008d6100b2366004610841565b6105df565b3480156100c357600080fd5b506100d76100d236600461089c565b61075c565b6040516100719190610a76565b606060006100f260016107cc565b905060008060015b83811015610144576000818152600560205260409020600401546001600160a01b03163314156101325761012f600184610a8a565b92505b8061013c81610ab9565b9150506100fa565b5060008267ffffffffffffffff81111561016e57634e487b7160e01b600052604160045260246000fd5b6040519080825280602002602001820160405280156101a757816020015b6101946107d9565b81526020019060019003908161018c5790505b50905060015b8481101561028c576000818152600560205260409020600401546001600160a01b031633141561027a57600081815260056020818152604092839020835160c0810185528154815260018201546001600160a01b0390811693820193909352600282015494810194909452600381015482166060850152600481015490911660808401529081015460a0830152835183929085908790811061025f57634e487b7160e01b600052603260045260246000fd5b6020908102919091010152610275600186610a8a565b945050505b8061028481610ab9565b9150506101ad565b50935050505090565b600260005414156102c15760405162461bcd60e51b81526004016102b890610a08565b60405180910390fd5b6002600055806102e35760405162461bcd60e51b81526004016102b890610a3f565b60045434146103045760405162461bcd60e51b81526004016102b890610970565b61030e60016107d0565b600061031a60016107cc565b6040805160c0810182528281526001600160a01b0380881660208084018281528486018a8152336060870181815260006080890181815260a08a018e81528c8352600597889052918b902099518a55945160018a018054918a166001600160a01b0319928316179055935160028a015590516003890180549189169185169190911790559251600480890180549290981691909316179095559051949091019390935592516323b872dd60e01b815293945091926323b872dd926103e492909130918991016108fe565b600060405180830381600087803b1580156103fe57600080fd5b505af1158015610412573d6000803e3d6000fd5b5050505082846001600160a01b0316827f2ad024d53a0dc50c130967f8d4941927ee087ea31394cebb2b9599d3706c9c0033600087604051610456939291906108fe565b60405180910390a4505060016000555050565b6060600061047760016107cc565b9050600061048560026107cc565b61048f60016107cc565b6104999190610aa2565b90506000808267ffffffffffffffff8111156104c557634e487b7160e01b600052604160045260246000fd5b6040519080825280602002602001820160405280156104fe57816020015b6104eb6107d9565b8152602001906001900390816104e35790505b50905060015b8481101561028c576000818152600560205260409020600401546001600160a01b03166105cd57600081815260056020818152604092839020835160c0810185528154815260018201546001600160a01b0390811693820193909352600282015494810194909452600381015482166060850152600481015490911660808401529081015460a083015283519091908490869081106105b357634e487b7160e01b600052603260045260246000fd5b60209081029190910101526105c9600185610a8a565b9350505b806105d781610ab9565b915050610504565b600260005414156106025760405162461bcd60e51b81526004016102b890610a08565b600260008181558281526005602081905260409091209081015491015434821461063e5760405162461bcd60e51b81526004016102b8906109b5565b6000838152600560205260408082206003015490516001600160a01b03909116913480156108fc02929091818181858888f19350505050158015610686573d6000803e3d6000fd5b506040516323b872dd60e01b81526001600160a01b038516906323b872dd906106b7903090339086906004016108fe565b600060405180830381600087803b1580156106d157600080fd5b505af11580156106e5573d6000803e3d6000fd5b505050600084815260056020526040902060040180546001600160a01b031916331790555061071460026107d0565b6003546004546040516001600160a01b039092169181156108fc0291906000818181858888f19350505050158015610750573d6000803e3d6000fd5b50506001600055505050565b6107646107d9565b50600081815260056020818152604092839020835160c0810185528154815260018201546001600160a01b039081169382019390935260028201549481019490945260038101548216606085015260048101549091166080840152015460a08201525b919050565b5490565b80546001019055565b6040518060c001604052806000815260200160006001600160a01b031681526020016000815260200160006001600160a01b0316815260200160006001600160a01b03168152602001600081525090565b80356001600160a01b03811681146107c757600080fd5b60008060408385031215610853578182fd5b61085c8361082a565b946020939093013593505050565b60008060006060848603121561087e578081fd5b6108878461082a565b95602085013595506040909401359392505050565b6000602082840312156108ad578081fd5b5035919050565b80518252602081015160018060a01b03808216602085015260408301516040850152806060840151166060850152806080840151166080850152505060a081015160a08301525050565b6001600160a01b039384168152919092166020820152604081019190915260600190565b6020808252825182820181905260009190848201906040850190845b81811015610964576109518385516108b4565b9284019260c0929092019160010161093e565b50909695505050505050565b60208082526025908201527f76616c7565206d75737420626520657175616c20746f206c697374696e6720706040820152643934b1b29760d91b606082015260800190565b60208082526033908201527f76616c7565206d75737420626520657175616c206f72206772656174657220746040820152723430b7103a34329034ba32b690383934b1b29760691b606082015260800190565b6020808252601f908201527f5265656e7472616e637947756172643a207265656e7472616e742063616c6c00604082015260600190565b6020808252601c908201527f5072696365206d757374206265206174206c6561737420312077656900000000604082015260600190565b60c08101610a8482846108b4565b92915050565b60008219821115610a9d57610a9d610ad4565b500190565b600082821015610ab457610ab4610ad4565b500390565b6000600019821415610acd57610acd610ad4565b5060010190565b634e487b7160e01b600052601160045260246000fdfea2646970667358221220541497a5e3d448eca8cd2dce66a29fac0492c3e6951d4e001ced3f54a516c16c64736f6c63430008010033",
  "immutableReferences": {},
  "source": "// SPDX-License-Identifier: GPL-3.0\r\n\r\npragma solidity >=0.6.0 <0.9.0;\r\n\r\nimport \"@openzeppelin/contracts/utils/Counters.sol\";\r\nimport \"@openzeppelin/contracts/token/ERC721/extensions/ERC721URIStorage.sol\";\r\nimport \"@openzeppelin/contracts/security/ReentrancyGuard.sol\";\r\nimport \"@openzeppelin/contracts/token/ERC721/ERC721.sol\";\r\n\r\n\r\ncontract MarketPlace is ReentrancyGuard{\r\n    //ReentrancyGuard for security when one contract is called by another.\r\n\r\n    using Counters for Counters.Counter;\r\n    Counters.Counter private _itemIds;\r\n    Counters.Counter private _itemsSold;\r\n\r\n    address payable owner;\r\n    uint256 listingPrice = 0.1 ether;\r\n\r\n    constructor(){\r\n        owner = payable(msg.sender);\r\n    }\r\n\r\n    struct MarketItem{\r\n        uint itemId;\r\n        address nftContract;\r\n        uint256 tokenId;\r\n        address payable seller;\r\n        address payable owner;\r\n        uint256 price;\r\n    }\r\n\r\n    mapping(uint256 => MarketItem) private idToMarketItem;//Each Marketitem created is assigned to an ID.\r\n\r\n    event MarketItemCreated(\r\n        uint indexed itemId,\r\n        address indexed nftContract,\r\n        uint256 indexed tokenId,\r\n        address seller,\r\n        address owner,\r\n        uint256 price\r\n    );\r\n\r\n    function getMarketItem(uint256 marketItemId) public view returns (MarketItem memory) {\r\n        return idToMarketItem[marketItemId];\r\n    }\r\n\r\n\r\n    function createMarketItem(address nftContract, uint256 tokenId, uint256 price) public payable nonReentrant {\r\n        require(price > 0, \"Price must be at least 1 wei\");\r\n        require(msg.value == listingPrice, \"value must be equal to listing price.\");//The price the market place charged for listing nfts.\r\n\r\n        _itemIds.increment();\r\n        uint256 itemId = _itemIds.current();\r\n\r\n\r\n        idToMarketItem[itemId] = MarketItem(\r\n            itemId,\r\n            nftContract,\r\n            tokenId,\r\n            payable(msg.sender),\r\n            payable(address(0)),\r\n            price\r\n        );\r\n\r\n        IERC721(nftContract).transferFrom(msg.sender, address(this), tokenId);//Tranfer the item to this contract address.\r\n\r\n        emit MarketItemCreated(\r\n            itemId,\r\n            nftContract,\r\n            tokenId,\r\n            msg.sender,\r\n            address(0),\r\n            price\r\n        );\r\n\r\n\r\n    }\r\n\r\n\r\n    function createMarketSale(\r\n        address nftContract,\r\n        uint itemId\r\n    ) public payable nonReentrant{\r\n        uint price = idToMarketItem[itemId].price;\r\n        uint tokenId = idToMarketItem[itemId].tokenId;\r\n\r\n        require(msg.value == price, \"value must be equal or greater than the item price.\");\r\n\r\n        idToMarketItem[itemId].seller.transfer(msg.value);//Transfer the value to the seller\r\n\r\n        IERC721(nftContract).transferFrom(address(this), msg.sender, tokenId);//Transfer the item to the new owner\r\n\r\n        idToMarketItem[itemId].owner = payable(msg.sender);\r\n        _itemsSold.increment();\r\n        payable(owner).transfer(listingPrice);//Transfer the listing price to the owner of the contract.\r\n    }\r\n\r\n    function fetchMarketItem() public view returns(MarketItem[] memory) {\r\n        uint itemCount = _itemIds.current();//Total items\r\n        uint unsoldItemCount = _itemIds.current() - _itemsSold.current();\r\n        uint currentIndex = 0;\r\n\r\n        MarketItem[] memory items = new MarketItem[](unsoldItemCount);//Initializing an array with a specific length;\r\n\r\n        for(uint i = 1; i < itemCount; i++){\r\n            if(idToMarketItem[i].owner == address(0)){\r\n\r\n                MarketItem storage currentItem  = idToMarketItem[i];\r\n                items[currentIndex] = currentItem;\r\n\r\n                currentIndex += 1;\r\n            }\r\n        }\r\n\r\n        return items;\r\n    }\r\n\r\n    function fetchMyNFTs() public view returns (MarketItem[] memory){\r\n        uint totalItemCount = _itemIds.current();\r\n        uint itemCount = 0;\r\n        uint currentIndex = 0;\r\n\r\n        for(uint i = 1; i < totalItemCount; i++){\r\n            if(idToMarketItem[i].owner == msg.sender){\r\n                itemCount += 1;\r\n            }\r\n        }\r\n\r\nMarketItem[] memory items = new MarketItem[](itemCount);\r\n    for (uint i = 1; i < totalItemCount; i++) {\r\n      if (idToMarketItem[i].owner == msg.sender) {\r\n        uint currentId = i;\r\n        MarketItem storage currentItem = idToMarketItem[currentId];\r\n        items[currentIndex] = currentItem;\r\n        currentIndex += 1;\r\n      }\r\n    }\r\n\r\n    return items;\r\n    }\r\n\r\n}",
  "sourcePath": "D:\\HP ENVY 15\\MY PROJECT\\WEB\\SOLIDITY\\nft-tutorial\\contracts\\Marketplace.sol",
  "compiler": {
    "name": "solc",
    "version": "0.8.1+commit.df193b15.Emscripten.clang"
  },
  "schemaVersion": "3.4.4",
  "updatedAt": "2022-03-11T13:40:07.137Z",
  "networkType": "ethereum",
  "devdoc": {
    "kind": "dev",
    "methods": {},
    "version": 1
  },
  "userdoc": {
    "kind": "user",
    "methods": {},
    "version": 1
  }
}