{
  "contractName": "MarketPlace",
  "abi": [
    {
      "inputs": [],
      "stateMutability": "nonpayable",
      "type": "constructor"
    },
    {
      "anonymous": false,
      "inputs": [
        {
          "indexed": true,
          "internalType": "uint256",
          "name": "itemId",
          "type": "uint256"
        },
        {
          "indexed": true,
          "internalType": "address",
          "name": "nftContract",
          "type": "address"
        },
        {
          "indexed": true,
          "internalType": "uint256",
          "name": "tokenId",
          "type": "uint256"
        },
        {
          "indexed": false,
          "internalType": "address",
          "name": "seller",
          "type": "address"
        },
        {
          "indexed": false,
          "internalType": "address",
          "name": "owner",
          "type": "address"
        },
        {
          "indexed": false,
          "internalType": "uint256",
          "name": "price",
          "type": "uint256"
        },
        {
          "indexed": false,
          "internalType": "bool",
          "name": "sold",
          "type": "bool"
        }
      ],
      "name": "MarketItemCreated",
      "type": "event"
    },
    {
      "anonymous": false,
      "inputs": [
        {
          "indexed": true,
          "internalType": "uint256",
          "name": "itemId",
          "type": "uint256"
        },
        {
          "indexed": true,
          "internalType": "address",
          "name": "nftContract",
          "type": "address"
        },
        {
          "indexed": true,
          "internalType": "uint256",
          "name": "tokenId",
          "type": "uint256"
        },
        {
          "indexed": false,
          "internalType": "address",
          "name": "seller",
          "type": "address"
        },
        {
          "indexed": false,
          "internalType": "address",
          "name": "owner",
          "type": "address"
        },
        {
          "indexed": false,
          "internalType": "uint256",
          "name": "price",
          "type": "uint256"
        },
        {
          "indexed": false,
          "internalType": "bool",
          "name": "sold",
          "type": "bool"
        }
      ],
      "name": "MarketItemSold",
      "type": "event"
    },
    {
      "inputs": [],
      "name": "getListingPrice",
      "outputs": [
        {
          "internalType": "uint256",
          "name": "",
          "type": "uint256"
        }
      ],
      "stateMutability": "view",
      "type": "function"
    },
    {
      "inputs": [
        {
          "internalType": "uint256",
          "name": "marketItemId",
          "type": "uint256"
        }
      ],
      "name": "getMarketItem",
      "outputs": [
        {
          "components": [
            {
              "internalType": "uint256",
              "name": "itemId",
              "type": "uint256"
            },
            {
              "internalType": "address",
              "name": "nftContract",
              "type": "address"
            },
            {
              "internalType": "uint256",
              "name": "tokenId",
              "type": "uint256"
            },
            {
              "internalType": "address payable",
              "name": "seller",
              "type": "address"
            },
            {
              "internalType": "address payable",
              "name": "owner",
              "type": "address"
            },
            {
              "internalType": "uint256",
              "name": "price",
              "type": "uint256"
            },
            {
              "internalType": "bool",
              "name": "sold",
              "type": "bool"
            }
          ],
          "internalType": "struct MarketPlace.MarketItem",
          "name": "",
          "type": "tuple"
        }
      ],
      "stateMutability": "view",
      "type": "function"
    },
    {
      "inputs": [
        {
          "internalType": "address",
          "name": "nftContract",
          "type": "address"
        },
        {
          "internalType": "uint256",
          "name": "tokenId",
          "type": "uint256"
        },
        {
          "internalType": "uint256",
          "name": "price",
          "type": "uint256"
        }
      ],
      "name": "createMarketItem",
      "outputs": [],
      "stateMutability": "payable",
      "type": "function"
    },
    {
      "inputs": [
        {
          "internalType": "address",
          "name": "nftContract",
          "type": "address"
        },
        {
          "internalType": "uint256",
          "name": "itemId",
          "type": "uint256"
        }
      ],
      "name": "createMarketSale",
      "outputs": [],
      "stateMutability": "payable",
      "type": "function"
    },
    {
      "inputs": [],
      "name": "fetchMarketItems",
      "outputs": [
        {
          "components": [
            {
              "internalType": "uint256",
              "name": "itemId",
              "type": "uint256"
            },
            {
              "internalType": "address",
              "name": "nftContract",
              "type": "address"
            },
            {
              "internalType": "uint256",
              "name": "tokenId",
              "type": "uint256"
            },
            {
              "internalType": "address payable",
              "name": "seller",
              "type": "address"
            },
            {
              "internalType": "address payable",
              "name": "owner",
              "type": "address"
            },
            {
              "internalType": "uint256",
              "name": "price",
              "type": "uint256"
            },
            {
              "internalType": "bool",
              "name": "sold",
              "type": "bool"
            }
          ],
          "internalType": "struct MarketPlace.MarketItem[]",
          "name": "",
          "type": "tuple[]"
        }
      ],
      "stateMutability": "view",
      "type": "function"
    },
    {
      "inputs": [],
      "name": "fetchMyNFTs",
      "outputs": [
        {
          "components": [
            {
              "internalType": "uint256",
              "name": "itemId",
              "type": "uint256"
            },
            {
              "internalType": "address",
              "name": "nftContract",
              "type": "address"
            },
            {
              "internalType": "uint256",
              "name": "tokenId",
              "type": "uint256"
            },
            {
              "internalType": "address payable",
              "name": "seller",
              "type": "address"
            },
            {
              "internalType": "address payable",
              "name": "owner",
              "type": "address"
            },
            {
              "internalType": "uint256",
              "name": "price",
              "type": "uint256"
            },
            {
              "internalType": "bool",
              "name": "sold",
              "type": "bool"
            }
          ],
          "internalType": "struct MarketPlace.MarketItem[]",
          "name": "",
          "type": "tuple[]"
        }
      ],
      "stateMutability": "view",
      "type": "function"
    },
    {
      "inputs": [],
      "name": "fetchItemsCreated",
      "outputs": [
        {
          "components": [
            {
              "internalType": "uint256",
              "name": "itemId",
              "type": "uint256"
            },
            {
              "internalType": "address",
              "name": "nftContract",
              "type": "address"
            },
            {
              "internalType": "uint256",
              "name": "tokenId",
              "type": "uint256"
            },
            {
              "internalType": "address payable",
              "name": "seller",
              "type": "address"
            },
            {
              "internalType": "address payable",
              "name": "owner",
              "type": "address"
            },
            {
              "internalType": "uint256",
              "name": "price",
              "type": "uint256"
            },
            {
              "internalType": "bool",
              "name": "sold",
              "type": "bool"
            }
          ],
          "internalType": "struct MarketPlace.MarketItem[]",
          "name": "",
          "type": "tuple[]"
        }
      ],
      "stateMutability": "view",
      "type": "function"
    }
  ],
  "bytecode": "0x60806040526658d15e1762800060045534801561001b57600080fd5b506001600055600380546001600160a01b03191633179055610ecc806100426000396000f3fe6080604052600436106100705760003560e01c806358eb2df51161004e57806358eb2df5146100d7578063c23b139e146100ec578063c7be7a49146100ff578063f064c32e1461012c57610070565b80630f08efe01461007557806312e85585146100a0578063202e3740146100c2575b600080fd5b34801561008157600080fd5b5061008a610141565b6040516100979190610cc5565b60405180910390f35b3480156100ac57600080fd5b506100b5610305565b6040516100979190610e2d565b3480156100ce57600080fd5b5061008a61030b565b6100ea6100e5366004610bd8565b610505565b005b6100ea6100fa366004610baf565b6106f9565b34801561010b57600080fd5b5061011f61011a366004610c0a565b6108d5565b6040516100979190610e19565b34801561013857600080fd5b5061008a610955565b6060600061014f6001610b4f565b9050600061015d6002610b4f565b6101676001610b4f565b6101719190610e4e565b90506000808267ffffffffffffffff81111561019d57634e487b7160e01b600052604160045260246000fd5b6040519080825280602002602001820160405280156101d657816020015b6101c3610b5c565b8152602001906001900390816101bb5790505b50905060005b848110156102fc5760006005816101f4846001610e36565b81526020810191909152604001600020600401546001600160a01b031614156102ea576000600581610227846001610e36565b81526020808201929092526040908101600090812054808252600580855291839020835160e0810185528154815260018201546001600160a01b0390811696820196909652600282015494810194909452600381015485166060850152600481015490941660808401529083015460a0830152600683015460ff16151560c083015285519093508590879081106102ce57634e487b7160e01b600052603260045260246000fd5b602002602001018190525084806102e490610e65565b95505050505b806102f481610e65565b9150506101dc565b50935050505090565b60045490565b606060006103196001610b4f565b905060008060005b8381101561037c573360056000610339846001610e36565b81526020810191909152604001600020600401546001600160a01b0316141561036a57610367600184610e36565b92505b8061037481610e65565b915050610321565b5060008267ffffffffffffffff8111156103a657634e487b7160e01b600052604160045260246000fd5b6040519080825280602002602001820160405280156103df57816020015b6103cc610b5c565b8152602001906001900390816103c45790505b50905060005b848110156102fc5733600560006103fd846001610e36565b81526020810191909152604001600020600401546001600160a01b031614156104f3576000600581610430846001610e36565b81526020808201929092526040908101600090812054808252600580855291839020835160e0810185528154815260018201546001600160a01b0390811696820196909652600282015494810194909452600381015485166060850152600481015490941660808401529083015460a0830152600683015460ff16151560c083015285519093508590879081106104d757634e487b7160e01b600052603260045260246000fd5b602002602001018190525084806104ed90610e65565b95505050505b806104fd81610e65565b9150506103e5565b600260005414156105315760405162461bcd60e51b815260040161052890610dab565b60405180910390fd5b6002600055806105535760405162461bcd60e51b815260040161052890610de2565b60045434146105745760405162461bcd60e51b815260040161052890610d13565b61057e6001610b53565b600061058a6001610b4f565b6040805160e0810182528281526001600160a01b0387811660208084018281528486018a8152336060870181815260006080890181815260a08a018e815260c08b018381528d8452600598899052928c90209a518b55955160018b0180546001600160a01b0319908116928c16929092179055945160028b0155915160038a0180548616918a1691909117905590516004808a018054909516919098161790925591519286019290925590516006909401805460ff19169415159490941790935592516323b872dd60e01b815293945091926323b872dd9261067192913091899101610ca1565b600060405180830381600087803b15801561068b57600080fd5b505af115801561069f573d6000803e3d6000fd5b5050505082846001600160a01b0316827f045dfa01dcba2b36aba1d3dc4a874f4b0c5d2fbeb8d2c4b34a7d88c8d8f929d13360008760006040516106e69493929190610c78565b60405180910390a4505060016000555050565b6002600054141561071c5760405162461bcd60e51b815260040161052890610dab565b60026000818155828152600560208190526040909120908101549101543482146107585760405162461bcd60e51b815260040161052890610d58565b6000838152600560205260408082206003015490516001600160a01b03909116913480156108fc02929091818181858888f193505050501580156107a0573d6000803e3d6000fd5b506040516323b872dd60e01b81526001600160a01b038516906323b872dd906107d190309033908690600401610ca1565b600060405180830381600087803b1580156107eb57600080fd5b505af11580156107ff573d6000803e3d6000fd5b50505060008481526005602052604090206004810180546001600160a01b03191633179055600601805460ff191660011790555061083d6002610b53565b6003546004546040516001600160a01b039092169181156108fc0291906000818181858888f19350505050158015610879573d6000803e3d6000fd5b506000838152600560205260409081902060030154905182916001600160a01b038088169287927ffeb04e399f6ba62d926a65372cbb5f11e3c7a9ff05e62948769d2ee5d5335b84926106e69291169033908990600190610c78565b6108dd610b5c565b50600081815260056020818152604092839020835160e0810185528154815260018201546001600160a01b0390811693820193909352600282015494810194909452600381015482166060850152600481015490911660808401529081015460a08301526006015460ff16151560c08201525b919050565b606060006109636001610b4f565b905060008060005b838110156109c6573360056000610983846001610e36565b81526020810191909152604001600020600301546001600160a01b031614156109b457826109b081610e65565b9350505b806109be81610e65565b91505061096b565b5060008267ffffffffffffffff8111156109f057634e487b7160e01b600052604160045260246000fd5b604051908082528060200260200182016040528015610a2957816020015b610a16610b5c565b815260200190600190039081610a0e5790505b50905060005b848110156102fc573360056000610a47846001610e36565b81526020810191909152604001600020600301546001600160a01b03161415610b3d576000600581610a7a846001610e36565b81526020808201929092526040908101600090812054808252600580855291839020835160e0810185528154815260018201546001600160a01b0390811696820196909652600282015494810194909452600381015485166060850152600481015490941660808401529083015460a0830152600683015460ff16151560c08301528551909350859087908110610b2157634e487b7160e01b600052603260045260246000fd5b60200260200101819052508480610b3790610e65565b95505050505b80610b4781610e65565b915050610a2f565b5490565b80546001019055565b6040805160e081018252600080825260208201819052918101829052606081018290526080810182905260a0810182905260c081019190915290565b80356001600160a01b038116811461095057600080fd5b60008060408385031215610bc1578182fd5b610bca83610b98565b946020939093013593505050565b600080600060608486031215610bec578081fd5b610bf584610b98565b95602085013595506040909401359392505050565b600060208284031215610c1b578081fd5b5035919050565b80518252602081015160018060a01b03808216602085015260408301516040850152806060840151166060850152806080840151166080850152505060a081015160a083015260c0810151151560c08301525050565b6001600160a01b0394851681529290931660208301526040820152901515606082015260800190565b6001600160a01b039384168152919092166020820152604081019190915260600190565b6020808252825182820181905260009190848201906040850190845b81811015610d0757610cf4838551610c22565b9284019260e09290920191600101610ce1565b50909695505050505050565b60208082526025908201527f76616c7565206d75737420626520657175616c20746f206c697374696e6720706040820152643934b1b29760d91b606082015260800190565b60208082526033908201527f76616c7565206d75737420626520657175616c206f72206772656174657220746040820152723430b7103a34329034ba32b690383934b1b29760691b606082015260800190565b6020808252601f908201527f5265656e7472616e637947756172643a207265656e7472616e742063616c6c00604082015260600190565b6020808252601c908201527f5072696365206d757374206265206174206c6561737420312077656900000000604082015260600190565b60e08101610e278284610c22565b92915050565b90815260200190565b60008219821115610e4957610e49610e80565b500190565b600082821015610e6057610e60610e80565b500390565b6000600019821415610e7957610e79610e80565b5060010190565b634e487b7160e01b600052601160045260246000fdfea264697066735822122071f49e16255d6b9ed03553050cc90d29eb18a90597b46df54f87b89080fee15864736f6c63430008010033",
  "immutableReferences": {},
  "source": "// SPDX-License-Identifier: GPL-3.0\r\n\r\npragma solidity >=0.6.0 <0.9.0;\r\n\r\nimport \"@openzeppelin/contracts/utils/Counters.sol\";\r\nimport \"@openzeppelin/contracts/token/ERC721/extensions/ERC721URIStorage.sol\";\r\nimport \"@openzeppelin/contracts/security/ReentrancyGuard.sol\";\r\nimport \"@openzeppelin/contracts/token/ERC721/ERC721.sol\";\r\n\r\n\r\ncontract MarketPlace is ReentrancyGuard{\r\n    //ReentrancyGuard for security when one contract is interacting with another.\r\n\r\n    using Counters for Counters.Counter;\r\n    Counters.Counter private _itemIds;\r\n    Counters.Counter private _itemsSold;\r\n\r\n    address payable owner;\r\n    uint256 listingPrice = 0.025 ether;\r\n\r\n    constructor(){\r\n        owner = payable(msg.sender);\r\n    }\r\n\r\n    struct MarketItem{\r\n        uint itemId;\r\n        address nftContract;\r\n        uint256 tokenId;\r\n        address payable seller;\r\n        address payable owner;\r\n        uint256 price;\r\n        bool sold;\r\n    }\r\n\r\n    mapping(uint256 => MarketItem) private idToMarketItem;//Each Marketitem created is assigned to an ID.\r\n\r\n    event MarketItemCreated(\r\n        uint indexed itemId,\r\n        address indexed nftContract,\r\n        uint256 indexed tokenId,\r\n        address seller,\r\n        address owner,\r\n        uint256 price,\r\n        bool sold\r\n    );\r\n\r\n    event MarketItemSold(\r\n        uint indexed itemId,\r\n        address indexed nftContract,\r\n        uint256 indexed tokenId,\r\n        address seller,\r\n        address owner,\r\n        uint256 price,\r\n        bool sold\r\n    );\r\n\r\n\r\n    function getListingPrice() public view returns (uint256) {\r\n        return listingPrice;\r\n    }\r\n\r\n    function getMarketItem(uint256 marketItemId) public view returns (MarketItem memory) {\r\n        return idToMarketItem[marketItemId];\r\n    }\r\n\r\n\r\n    function createMarketItem(address nftContract, uint256 tokenId, uint256 price) public payable nonReentrant {\r\n        require(price > 0, \"Price must be at least 1 wei\");\r\n        require(msg.value == listingPrice, \"value must be equal to listing price.\");//The price the market place charged for listing nfts.\r\n\r\n        _itemIds.increment();\r\n        uint256 itemId = _itemIds.current();\r\n\r\n\r\n        idToMarketItem[itemId] = MarketItem(\r\n            itemId,\r\n            nftContract,\r\n            tokenId,\r\n            payable(msg.sender),\r\n            payable(address(0)),\r\n            price,\r\n            false\r\n        );\r\n\r\n        //Tranfer the ownership of the  item to this contract address.\r\n        IERC721(nftContract).transferFrom(msg.sender, address(this), tokenId);\r\n\r\n        emit MarketItemCreated(\r\n            itemId,\r\n            nftContract,\r\n            tokenId,\r\n            msg.sender,\r\n            address(0),\r\n            price,\r\n            false\r\n        );\r\n\r\n\r\n    }\r\n\r\n\r\n    function createMarketSale(\r\n        address nftContract,\r\n        uint itemId\r\n    ) public payable nonReentrant{\r\n        uint price = idToMarketItem[itemId].price;\r\n        uint tokenId = idToMarketItem[itemId].tokenId;\r\n\r\n        require(msg.value == price, \"value must be equal or greater than the item price.\");\r\n\r\n        //Transfer the value to the seller\r\n        idToMarketItem[itemId].seller.transfer(msg.value);\r\n\r\n        //Transfer the item to the new owner\r\n        IERC721(nftContract).transferFrom(address(this), msg.sender, tokenId);\r\n\r\n        idToMarketItem[itemId].owner = payable(msg.sender);\r\n        idToMarketItem[itemId].sold = true;\r\n        _itemsSold.increment();\r\n\r\n        //Transfer the listing price to the owner of the contract.\r\n        payable(owner).transfer(listingPrice);\r\n\r\n        emit MarketItemSold(\r\n            itemId,\r\n            nftContract,\r\n            tokenId,\r\n            idToMarketItem[itemId].seller,\r\n            msg.sender,\r\n            price,\r\n            true\r\n        );\r\n    }\r\n\r\n    function fetchMarketItems() public view returns(MarketItem[] memory) {\r\n        uint itemCount = _itemIds.current();//Total items\r\n        uint unsoldItemCount = _itemIds.current() - _itemsSold.current();\r\n        uint currentIndex = 0;\r\n\r\n        MarketItem[] memory items = new MarketItem[](unsoldItemCount);//Initializing an array with a specific length;\r\n\r\n        for(uint i = 0; i < itemCount; i++){\r\n            if(idToMarketItem[i+1].owner == address(0)){\r\n                uint currentId = idToMarketItem[i+1].itemId;\r\n                MarketItem storage currentItem  = idToMarketItem[currentId];\r\n                items[currentIndex] = currentItem;\r\n\r\n                currentIndex++;\r\n            }\r\n        }\r\n\r\n        return items;\r\n    }\r\n\r\n    function fetchMyNFTs() public view returns (MarketItem[] memory){\r\n        uint totalItemCount = _itemIds.current();\r\n        uint itemCount = 0;\r\n        uint currentIndex = 0;\r\n\r\n        for(uint i = 0; i < totalItemCount; i++){\r\n            if(idToMarketItem[i+1].owner == msg.sender){\r\n                itemCount += 1;\r\n            }\r\n        }\r\n\r\nMarketItem[] memory items = new MarketItem[](itemCount);\r\n    for (uint i = 0; i < totalItemCount; i++) {\r\n      if (idToMarketItem[i + 1].owner == msg.sender) {\r\n        uint currentId = idToMarketItem[i + 1].itemId;\r\n        MarketItem storage currentItem = idToMarketItem[currentId];\r\n        items[currentIndex] = currentItem;\r\n        currentIndex++;\r\n      }\r\n    }\r\n\r\n    return items;\r\n    }\r\n\r\n\r\n    function fetchItemsCreated()public view returns (MarketItem[] memory) {\r\n        uint totalItemCount = _itemIds.current();\r\n        uint itemCount = 0;\r\n        uint currentIndex = 0;\r\n\r\n        for(uint i =0; i < totalItemCount; i++ ){\r\n            if(idToMarketItem[i + 1].seller == msg.sender){\r\n                itemCount++;\r\n            }\r\n        }\r\n\r\n        MarketItem[] memory items = new MarketItem[](itemCount);\r\n        for (uint i = 0; i < totalItemCount; i++) {\r\n      if (idToMarketItem[i + 1].seller == msg.sender) {\r\n        uint currentId = idToMarketItem[i + 1].itemId;\r\n        MarketItem storage currentItem = idToMarketItem[currentId];\r\n        items[currentIndex] = currentItem;\r\n        currentIndex++;\r\n      }\r\n    }\r\n\r\n\r\n        return items;\r\n    }\r\n\r\n}",
  "sourcePath": "D:\\HP ENVY 15\\MY PROJECT\\WEB\\SOLIDITY\\nft-tutorial\\contracts\\Marketplace.sol",
  "compiler": {
    "name": "solc",
    "version": "0.8.1+commit.df193b15.Emscripten.clang"
  },
  "schemaVersion": "3.4.4",
  "updatedAt": "2022-03-21T11:01:57.108Z",
  "devdoc": {
    "kind": "dev",
    "methods": {},
    "version": 1
  },
  "userdoc": {
    "kind": "user",
    "methods": {},
    "version": 1
  }
}