{
  "contractName": "NFT",
  "abi": [
    {
      "inputs": [],
      "stateMutability": "nonpayable",
      "type": "constructor"
    },
    {
      "anonymous": false,
      "inputs": [
        {
          "indexed": true,
          "internalType": "address",
          "name": "owner",
          "type": "address"
        },
        {
          "indexed": true,
          "internalType": "address",
          "name": "approved",
          "type": "address"
        },
        {
          "indexed": true,
          "internalType": "uint256",
          "name": "tokenId",
          "type": "uint256"
        }
      ],
      "name": "Approval",
      "type": "event"
    },
    {
      "anonymous": false,
      "inputs": [
        {
          "indexed": true,
          "internalType": "address",
          "name": "owner",
          "type": "address"
        },
        {
          "indexed": true,
          "internalType": "address",
          "name": "operator",
          "type": "address"
        },
        {
          "indexed": false,
          "internalType": "bool",
          "name": "approved",
          "type": "bool"
        }
      ],
      "name": "ApprovalForAll",
      "type": "event"
    },
    {
      "anonymous": false,
      "inputs": [
        {
          "indexed": true,
          "internalType": "address",
          "name": "from",
          "type": "address"
        },
        {
          "indexed": true,
          "internalType": "address",
          "name": "to",
          "type": "address"
        },
        {
          "indexed": true,
          "internalType": "uint256",
          "name": "tokenId",
          "type": "uint256"
        }
      ],
      "name": "Transfer",
      "type": "event"
    },
    {
      "inputs": [
        {
          "internalType": "address",
          "name": "to",
          "type": "address"
        },
        {
          "internalType": "uint256",
          "name": "tokenId",
          "type": "uint256"
        }
      ],
      "name": "approve",
      "outputs": [],
      "stateMutability": "nonpayable",
      "type": "function"
    },
    {
      "inputs": [
        {
          "internalType": "address",
          "name": "owner",
          "type": "address"
        }
      ],
      "name": "balanceOf",
      "outputs": [
        {
          "internalType": "uint256",
          "name": "",
          "type": "uint256"
        }
      ],
      "stateMutability": "view",
      "type": "function",
      "constant": true
    },
    {
      "inputs": [
        {
          "internalType": "uint256",
          "name": "tokenId",
          "type": "uint256"
        }
      ],
      "name": "getApproved",
      "outputs": [
        {
          "internalType": "address",
          "name": "",
          "type": "address"
        }
      ],
      "stateMutability": "view",
      "type": "function",
      "constant": true
    },
    {
      "inputs": [
        {
          "internalType": "address",
          "name": "owner",
          "type": "address"
        },
        {
          "internalType": "address",
          "name": "operator",
          "type": "address"
        }
      ],
      "name": "isApprovedForAll",
      "outputs": [
        {
          "internalType": "bool",
          "name": "",
          "type": "bool"
        }
      ],
      "stateMutability": "view",
      "type": "function",
      "constant": true
    },
    {
      "inputs": [],
      "name": "name",
      "outputs": [
        {
          "internalType": "string",
          "name": "",
          "type": "string"
        }
      ],
      "stateMutability": "view",
      "type": "function",
      "constant": true
    },
    {
      "inputs": [
        {
          "internalType": "uint256",
          "name": "tokenId",
          "type": "uint256"
        }
      ],
      "name": "ownerOf",
      "outputs": [
        {
          "internalType": "address",
          "name": "",
          "type": "address"
        }
      ],
      "stateMutability": "view",
      "type": "function",
      "constant": true
    },
    {
      "inputs": [
        {
          "internalType": "address",
          "name": "from",
          "type": "address"
        },
        {
          "internalType": "address",
          "name": "to",
          "type": "address"
        },
        {
          "internalType": "uint256",
          "name": "tokenId",
          "type": "uint256"
        }
      ],
      "name": "safeTransferFrom",
      "outputs": [],
      "stateMutability": "nonpayable",
      "type": "function"
    },
    {
      "inputs": [
        {
          "internalType": "address",
          "name": "from",
          "type": "address"
        },
        {
          "internalType": "address",
          "name": "to",
          "type": "address"
        },
        {
          "internalType": "uint256",
          "name": "tokenId",
          "type": "uint256"
        },
        {
          "internalType": "bytes",
          "name": "_data",
          "type": "bytes"
        }
      ],
      "name": "safeTransferFrom",
      "outputs": [],
      "stateMutability": "nonpayable",
      "type": "function"
    },
    {
      "inputs": [
        {
          "internalType": "address",
          "name": "operator",
          "type": "address"
        },
        {
          "internalType": "bool",
          "name": "approved",
          "type": "bool"
        }
      ],
      "name": "setApprovalForAll",
      "outputs": [],
      "stateMutability": "nonpayable",
      "type": "function"
    },
    {
      "inputs": [
        {
          "internalType": "bytes4",
          "name": "interfaceId",
          "type": "bytes4"
        }
      ],
      "name": "supportsInterface",
      "outputs": [
        {
          "internalType": "bool",
          "name": "",
          "type": "bool"
        }
      ],
      "stateMutability": "view",
      "type": "function",
      "constant": true
    },
    {
      "inputs": [],
      "name": "symbol",
      "outputs": [
        {
          "internalType": "string",
          "name": "",
          "type": "string"
        }
      ],
      "stateMutability": "view",
      "type": "function",
      "constant": true
    },
    {
      "inputs": [
        {
          "internalType": "uint256",
          "name": "tokenId",
          "type": "uint256"
        }
      ],
      "name": "tokenURI",
      "outputs": [
        {
          "internalType": "string",
          "name": "",
          "type": "string"
        }
      ],
      "stateMutability": "view",
      "type": "function",
      "constant": true
    },
    {
      "inputs": [
        {
          "internalType": "address",
          "name": "from",
          "type": "address"
        },
        {
          "internalType": "address",
          "name": "to",
          "type": "address"
        },
        {
          "internalType": "uint256",
          "name": "tokenId",
          "type": "uint256"
        }
      ],
      "name": "transferFrom",
      "outputs": [],
      "stateMutability": "nonpayable",
      "type": "function"
    },
    {
      "inputs": [
        {
          "internalType": "address",
          "name": "_address",
          "type": "address"
        }
      ],
      "name": "setMarketPlaceAddress",
      "outputs": [],
      "stateMutability": "nonpayable",
      "type": "function"
    },
    {
      "inputs": [
        {
          "internalType": "string",
          "name": "tokenURI",
          "type": "string"
        }
      ],
      "name": "createToken",
      "outputs": [
        {
          "internalType": "uint256",
          "name": "",
          "type": "uint256"
        }
      ],
      "stateMutability": "nonpayable",
      "type": "function"
    }
  ],
  "bytecode": "0x60806040523480156200001157600080fd5b50604080518082018252601a81527f534559494a53204449474954414c204d41524b4554504c41434500000000000060208083019182528351808501909452600384526229aca560e91b9084015281519192916200007291600091620000a3565b50805162000088906001906020840190620000a3565b5050600980546001600160a01b031916331790555062000186565b828054620000b19062000149565b90600052602060002090601f016020900481019282620000d5576000855562000120565b82601f10620000f057805160ff191683800117855562000120565b8280016001018555821562000120579182015b828111156200012057825182559160200191906001019062000103565b506200012e92915062000132565b5090565b5b808211156200012e576000815560010162000133565b6002810460018216806200015e57607f821691505b602082108114156200018057634e487b7160e01b600052602260045260246000fd5b50919050565b61188d80620001966000396000f3fe608060405234801561001057600080fd5b50600436106100f55760003560e01c80636352211e11610097578063b88d4fde11610066578063b88d4fde146101f4578063c87b56dd14610207578063cc98ef961461021a578063e985e9c51461022d576100f5565b80636352211e146101b357806370a08231146101c657806395d89b41146101d9578063a22cb465146101e1576100f5565b8063095ea7b3116100d3578063095ea7b31461015857806323b872dd1461016d57806342842e0e1461018057806345576f9414610193576100f5565b806301ffc9a7146100fa57806306fdde0314610123578063081812fc14610138575b600080fd5b61010d6101083660046110d7565b610240565b60405161011a9190611219565b60405180910390f35b61012b610288565b60405161011a9190611224565b61014b610146366004611155565b61031a565b60405161011a91906111c8565b61016b6101663660046110ae565b610366565b005b61016b61017b366004610fc0565b6103fe565b61016b61018e366004610fc0565b610436565b6101a66101a136600461110f565b610451565b60405161011a919061171a565b61014b6101c1366004611155565b610496565b6101a66101d4366004610f74565b6104cb565b61012b61050f565b61016b6101ef366004611074565b61051e565b61016b610202366004610ffb565b610534565b61012b610215366004611155565b610573565b61016b610228366004610f74565b610694565b61010d61023b366004610f8e565b6106e0565b60006001600160e01b031982166380ac58cd60e01b148061027157506001600160e01b03198216635b5e139f60e01b145b8061028057506102808261070e565b90505b919050565b60606000805461029790611792565b80601f01602080910402602001604051908101604052809291908181526020018280546102c390611792565b80156103105780601f106102e557610100808354040283529160200191610310565b820191906000526020600020905b8154815290600101906020018083116102f357829003601f168201915b5050505050905090565b600061032582610727565b61034a5760405162461bcd60e51b815260040161034190611590565b60405180910390fd5b506000908152600460205260409020546001600160a01b031690565b600061037182610496565b9050806001600160a01b0316836001600160a01b031614156103a55760405162461bcd60e51b815260040161034190611688565b806001600160a01b03166103b7610744565b6001600160a01b031614806103d357506103d38161023b610744565b6103ef5760405162461bcd60e51b8152600401610341906113cc565b6103f98383610748565b505050565b61040f610409610744565b826107b6565b61042b5760405162461bcd60e51b8152600401610341906116c9565b6103f9838383610833565b6103f983838360405180602001604052806000815250610534565b600061045d6007610966565b6000610469600761096f565b90506104753382610973565b61047f8184610a5a565b600854610280906001600160a01b0316600161051e565b6000818152600260205260408120546001600160a01b0316806102805760405162461bcd60e51b815260040161034190611473565b60006001600160a01b0382166104f35760405162461bcd60e51b815260040161034190611429565b506001600160a01b031660009081526003602052604090205490565b60606001805461029790611792565b610530610529610744565b8383610a9e565b5050565b61054561053f610744565b836107b6565b6105615760405162461bcd60e51b8152600401610341906116c9565b61056d84848484610b41565b50505050565b606061057e82610727565b61059a5760405162461bcd60e51b81526004016103419061153f565b600082815260066020526040812080546105b390611792565b80601f01602080910402602001604051908101604052809291908181526020018280546105df90611792565b801561062c5780601f106106015761010080835404028352916020019161062c565b820191906000526020600020905b81548152906001019060200180831161060f57829003601f168201915b50505050509050600061063d610b74565b905080516000141561065157509050610283565b81511561068357808260405160200161066b929190611199565b60405160208183030381529060405292505050610283565b61068c84610b86565b949350505050565b6009546001600160a01b031633146106be5760405162461bcd60e51b81526004016103419061162b565b600880546001600160a01b0319166001600160a01b0392909216919091179055565b6001600160a01b03918216600090815260056020908152604080832093909416825291909152205460ff1690565b6001600160e01b031981166301ffc9a760e01b14919050565b6000908152600260205260409020546001600160a01b0316151590565b3390565b600081815260046020526040902080546001600160a01b0319166001600160a01b038416908117909155819061077d82610496565b6001600160a01b03167f8c5be1e5ebec7d5bd14f71427d1e84f3dd0314c0f7b2291e5b200ac8c7c3b92560405160405180910390a45050565b60006107c182610727565b6107dd5760405162461bcd60e51b815260040161034190611380565b60006107e883610496565b9050806001600160a01b0316846001600160a01b031614806108235750836001600160a01b03166108188461031a565b6001600160a01b0316145b8061068c575061068c81856106e0565b826001600160a01b031661084682610496565b6001600160a01b03161461086c5760405162461bcd60e51b815260040161034190611289565b6001600160a01b0382166108925760405162461bcd60e51b815260040161034190611305565b61089d8383836103f9565b6108a8600082610748565b6001600160a01b03831660009081526003602052604081208054600192906108d190849061174f565b90915550506001600160a01b03821660009081526003602052604081208054600192906108ff908490611723565b909155505060008181526002602052604080822080546001600160a01b0319166001600160a01b0386811691821790925591518493918716917fddf252ad1be2c89b69c2b068fc378daa952ba7f163c4a11628f55a4df523b3ef91a46103f98383836103f9565b80546001019055565b5490565b6001600160a01b0382166109995760405162461bcd60e51b81526004016103419061150a565b6109a281610727565b156109bf5760405162461bcd60e51b8152600401610341906112ce565b6109cb600083836103f9565b6001600160a01b03821660009081526003602052604081208054600192906109f4908490611723565b909155505060008181526002602052604080822080546001600160a01b0319166001600160a01b03861690811790915590518392907fddf252ad1be2c89b69c2b068fc378daa952ba7f163c4a11628f55a4df523b3ef908290a4610530600083836103f9565b610a6382610727565b610a7f5760405162461bcd60e51b8152600401610341906114bc565b600082815260066020908152604090912082516103f992840190610e4e565b816001600160a01b0316836001600160a01b03161415610ad05760405162461bcd60e51b815260040161034190611349565b6001600160a01b0383811660008181526005602090815260408083209487168084529490915290819020805460ff1916851515179055517f17307eab39ab6107e8899845ad3d59bd9653f200f220920489ca2b5937696c3190610b34908590611219565b60405180910390a3505050565b610b4c848484610833565b610b5884848484610c09565b61056d5760405162461bcd60e51b815260040161034190611237565b60408051602081019091526000815290565b6060610b9182610727565b610bad5760405162461bcd60e51b8152600401610341906115dc565b6000610bb7610b74565b90506000815111610bd75760405180602001604052806000815250610c02565b80610be184610d24565b604051602001610bf2929190611199565b6040516020818303038152906040525b9392505050565b6000610c1d846001600160a01b0316610e3f565b15610d1957836001600160a01b031663150b7a02610c39610744565b8786866040518563ffffffff1660e01b8152600401610c5b94939291906111dc565b602060405180830381600087803b158015610c7557600080fd5b505af1925050508015610ca5575060408051601f3d908101601f19168201909252610ca2918101906110f3565b60015b610cff573d808015610cd3576040519150601f19603f3d011682016040523d82523d6000602084013e610cd8565b606091505b508051610cf75760405162461bcd60e51b815260040161034190611237565b805181602001fd5b6001600160e01b031916630a85bd0160e11b14905061068c565b506001949350505050565b606081610d4957506040805180820190915260018152600360fc1b6020820152610283565b8160005b8115610d735780610d5d816117cd565b9150610d6c9050600a8361173b565b9150610d4d565b60008167ffffffffffffffff811115610d9c57634e487b7160e01b600052604160045260246000fd5b6040519080825280601f01601f191660200182016040528015610dc6576020820181803683370190505b5090505b841561068c57610ddb60018361174f565b9150610de8600a866117e8565b610df3906030611723565b60f81b818381518110610e1657634e487b7160e01b600052603260045260246000fd5b60200101906001600160f81b031916908160001a905350610e38600a8661173b565b9450610dca565b6001600160a01b03163b151590565b828054610e5a90611792565b90600052602060002090601f016020900481019282610e7c5760008555610ec2565b82601f10610e9557805160ff1916838001178555610ec2565b82800160010185558215610ec2579182015b82811115610ec2578251825591602001919060010190610ea7565b50610ece929150610ed2565b5090565b5b80821115610ece5760008155600101610ed3565b600067ffffffffffffffff80841115610f0257610f02611828565b604051601f8501601f19908116603f01168101908282118183101715610f2a57610f2a611828565b81604052809350858152868686011115610f4357600080fd5b858560208301376000602087830101525050509392505050565b80356001600160a01b038116811461028357600080fd5b600060208284031215610f85578081fd5b610c0282610f5d565b60008060408385031215610fa0578081fd5b610fa983610f5d565b9150610fb760208401610f5d565b90509250929050565b600080600060608486031215610fd4578081fd5b610fdd84610f5d565b9250610feb60208501610f5d565b9150604084013590509250925092565b60008060008060808587031215611010578081fd5b61101985610f5d565b935061102760208601610f5d565b925060408501359150606085013567ffffffffffffffff811115611049578182fd5b8501601f81018713611059578182fd5b61106887823560208401610ee7565b91505092959194509250565b60008060408385031215611086578182fd5b61108f83610f5d565b9150602083013580151581146110a3578182fd5b809150509250929050565b600080604083850312156110c0578182fd5b6110c983610f5d565b946020939093013593505050565b6000602082840312156110e8578081fd5b8135610c028161183e565b600060208284031215611104578081fd5b8151610c028161183e565b600060208284031215611120578081fd5b813567ffffffffffffffff811115611136578182fd5b8201601f81018413611146578182fd5b61068c84823560208401610ee7565b600060208284031215611166578081fd5b5035919050565b60008151808452611185816020860160208601611766565b601f01601f19169290920160200192915050565b600083516111ab818460208801611766565b8351908301906111bf818360208801611766565b01949350505050565b6001600160a01b0391909116815260200190565b6001600160a01b038581168252841660208201526040810183905260806060820181905260009061120f9083018461116d565b9695505050505050565b901515815260200190565b600060208252610c02602083018461116d565b60208082526032908201527f4552433732313a207472616e7366657220746f206e6f6e20455243373231526560408201527131b2b4bb32b91034b6b83632b6b2b73a32b960711b606082015260800190565b60208082526025908201527f4552433732313a207472616e736665722066726f6d20696e636f72726563742060408201526437bbb732b960d91b606082015260800190565b6020808252601c908201527f4552433732313a20746f6b656e20616c7265616479206d696e74656400000000604082015260600190565b60208082526024908201527f4552433732313a207472616e7366657220746f20746865207a65726f206164646040820152637265737360e01b606082015260800190565b60208082526019908201527f4552433732313a20617070726f766520746f2063616c6c657200000000000000604082015260600190565b6020808252602c908201527f4552433732313a206f70657261746f7220717565727920666f72206e6f6e657860408201526b34b9ba32b73a103a37b5b2b760a11b606082015260800190565b60208082526038908201527f4552433732313a20617070726f76652063616c6c6572206973206e6f74206f7760408201527f6e6572206e6f7220617070726f76656420666f7220616c6c0000000000000000606082015260800190565b6020808252602a908201527f4552433732313a2062616c616e636520717565727920666f7220746865207a65604082015269726f206164647265737360b01b606082015260800190565b60208082526029908201527f4552433732313a206f776e657220717565727920666f72206e6f6e657869737460408201526832b73a103a37b5b2b760b91b606082015260800190565b6020808252602e908201527f45524337323155524953746f726167653a2055524920736574206f66206e6f6e60408201526d32bc34b9ba32b73a103a37b5b2b760911b606082015260800190565b6020808252818101527f4552433732313a206d696e7420746f20746865207a65726f2061646472657373604082015260600190565b60208082526031908201527f45524337323155524953746f726167653a2055524920717565727920666f72206040820152703737b732bc34b9ba32b73a103a37b5b2b760791b606082015260800190565b6020808252602c908201527f4552433732313a20617070726f76656420717565727920666f72206e6f6e657860408201526b34b9ba32b73a103a37b5b2b760a11b606082015260800190565b6020808252602f908201527f4552433732314d657461646174613a2055524920717565727920666f72206e6f60408201526e3732bc34b9ba32b73a103a37b5b2b760891b606082015260800190565b60208082526039908201527f4f6e6c7920746865206f776e6572206f662074686520636f6e7472616374206960408201527f7320616c6c6f77656420746f206368616e676520746869732e00000000000000606082015260800190565b60208082526021908201527f4552433732313a20617070726f76616c20746f2063757272656e74206f776e656040820152603960f91b606082015260800190565b60208082526031908201527f4552433732313a207472616e736665722063616c6c6572206973206e6f74206f6040820152701ddb995c881b9bdc88185c1c1c9bdd9959607a1b606082015260800190565b90815260200190565b60008219821115611736576117366117fc565b500190565b60008261174a5761174a611812565b500490565b600082821015611761576117616117fc565b500390565b60005b83811015611781578181015183820152602001611769565b8381111561056d5750506000910152565b6002810460018216806117a657607f821691505b602082108114156117c757634e487b7160e01b600052602260045260246000fd5b50919050565b60006000198214156117e1576117e16117fc565b5060010190565b6000826117f7576117f7611812565b500690565b634e487b7160e01b600052601160045260246000fd5b634e487b7160e01b600052601260045260246000fd5b634e487b7160e01b600052604160045260246000fd5b6001600160e01b03198116811461185457600080fd5b5056fea26469706673582212207b224791da0acf3e30050f41e1d1abd01f2b516aa4b5f7fbed95d3b85156de8d64736f6c63430008010033",
  "immutableReferences": {},
  "source": "// SPDX-License-Identifier: GPL-3.0\r\n\r\npragma solidity >=0.6.0 <0.9.0;\r\n\r\nimport \"@openzeppelin/contracts/utils/Counters.sol\";\r\nimport \"@openzeppelin/contracts/token/ERC721/extensions/ERC721URIStorage.sol\";\r\nimport \"@openzeppelin/contracts/security/ReentrancyGuard.sol\";\r\nimport \"@openzeppelin/contracts/token/ERC721/ERC721.sol\";\r\n\r\n\r\ncontract NFT is ERC721URIStorage{\r\n    using Counters for Counters.Counter;\r\n    Counters.Counter private _tokenIds;\r\n    address marketPlaceAddress;\r\n    address owner;//Contract owner address\r\n\r\n    constructor() ERC721(\"SEYIJS DIGITAL MARKETPLACE\", \"SYJ\") {\r\n        owner = msg.sender;\r\n    }\r\n\r\n    function setMarketPlaceAddress(address _address) public {\r\n        require(msg.sender == owner, \"Only the owner of the contract is allowed to change this.\");\r\n\r\n        marketPlaceAddress = _address;\r\n    }\r\n\r\n    function createToken(string memory tokenURI) public returns(uint) {\r\n        _tokenIds.increment();\r\n\r\n        uint256 newItemId = _tokenIds.current();//The token id that was just created.\r\n\r\n        _mint(msg.sender, newItemId);\r\n        _setTokenURI(newItemId,tokenURI);\r\n        setApprovalForAll(marketPlaceAddress, true);\r\n\r\n        return newItemId;\r\n    }\r\n\r\n}\r\n\r\n",
  "sourcePath": "D:\\HP ENVY 15\\MY PROJECT\\WEB\\SOLIDITY\\nft-tutorial\\contracts\\NFT.sol",
  "compiler": {
    "name": "solc",
    "version": "0.8.1+commit.df193b15.Emscripten.clang"
  },
  "schemaVersion": "3.4.4",
  "updatedAt": "2022-03-11T13:40:05.608Z",
  "networkType": "ethereum",
  "devdoc": {
    "kind": "dev",
    "methods": {
      "approve(address,uint256)": {
        "details": "See {IERC721-approve}."
      },
      "balanceOf(address)": {
        "details": "See {IERC721-balanceOf}."
      },
      "getApproved(uint256)": {
        "details": "See {IERC721-getApproved}."
      },
      "isApprovedForAll(address,address)": {
        "details": "See {IERC721-isApprovedForAll}."
      },
      "name()": {
        "details": "See {IERC721Metadata-name}."
      },
      "ownerOf(uint256)": {
        "details": "See {IERC721-ownerOf}."
      },
      "safeTransferFrom(address,address,uint256)": {
        "details": "See {IERC721-safeTransferFrom}."
      },
      "safeTransferFrom(address,address,uint256,bytes)": {
        "details": "See {IERC721-safeTransferFrom}."
      },
      "setApprovalForAll(address,bool)": {
        "details": "See {IERC721-setApprovalForAll}."
      },
      "supportsInterface(bytes4)": {
        "details": "See {IERC165-supportsInterface}."
      },
      "symbol()": {
        "details": "See {IERC721Metadata-symbol}."
      },
      "tokenURI(uint256)": {
        "details": "See {IERC721Metadata-tokenURI}."
      },
      "transferFrom(address,address,uint256)": {
        "details": "See {IERC721-transferFrom}."
      }
    },
    "version": 1
  },
  "userdoc": {
    "kind": "user",
    "methods": {},
    "version": 1
  }
}