{
  "contractName": "SeyijsCollection",
  "abi": [
    {
      "inputs": [],
      "stateMutability": "nonpayable",
      "type": "constructor"
    },
    {
      "anonymous": false,
      "inputs": [
        {
          "indexed": true,
          "internalType": "address",
          "name": "owner",
          "type": "address"
        },
        {
          "indexed": true,
          "internalType": "address",
          "name": "approved",
          "type": "address"
        },
        {
          "indexed": true,
          "internalType": "uint256",
          "name": "tokenId",
          "type": "uint256"
        }
      ],
      "name": "Approval",
      "type": "event"
    },
    {
      "anonymous": false,
      "inputs": [
        {
          "indexed": true,
          "internalType": "address",
          "name": "owner",
          "type": "address"
        },
        {
          "indexed": true,
          "internalType": "address",
          "name": "operator",
          "type": "address"
        },
        {
          "indexed": false,
          "internalType": "bool",
          "name": "approved",
          "type": "bool"
        }
      ],
      "name": "ApprovalForAll",
      "type": "event"
    },
    {
      "anonymous": false,
      "inputs": [
        {
          "indexed": true,
          "internalType": "address",
          "name": "from",
          "type": "address"
        },
        {
          "indexed": true,
          "internalType": "address",
          "name": "to",
          "type": "address"
        },
        {
          "indexed": true,
          "internalType": "uint256",
          "name": "tokenId",
          "type": "uint256"
        }
      ],
      "name": "Transfer",
      "type": "event"
    },
    {
      "inputs": [
        {
          "internalType": "address",
          "name": "to",
          "type": "address"
        },
        {
          "internalType": "uint256",
          "name": "tokenId",
          "type": "uint256"
        }
      ],
      "name": "approve",
      "outputs": [],
      "stateMutability": "nonpayable",
      "type": "function"
    },
    {
      "inputs": [
        {
          "internalType": "address",
          "name": "owner",
          "type": "address"
        }
      ],
      "name": "balanceOf",
      "outputs": [
        {
          "internalType": "uint256",
          "name": "",
          "type": "uint256"
        }
      ],
      "stateMutability": "view",
      "type": "function"
    },
    {
      "inputs": [
        {
          "internalType": "uint256",
          "name": "tokenId",
          "type": "uint256"
        }
      ],
      "name": "getApproved",
      "outputs": [
        {
          "internalType": "address",
          "name": "",
          "type": "address"
        }
      ],
      "stateMutability": "view",
      "type": "function"
    },
    {
      "inputs": [
        {
          "internalType": "address",
          "name": "owner",
          "type": "address"
        },
        {
          "internalType": "address",
          "name": "operator",
          "type": "address"
        }
      ],
      "name": "isApprovedForAll",
      "outputs": [
        {
          "internalType": "bool",
          "name": "",
          "type": "bool"
        }
      ],
      "stateMutability": "view",
      "type": "function"
    },
    {
      "inputs": [],
      "name": "name",
      "outputs": [
        {
          "internalType": "string",
          "name": "",
          "type": "string"
        }
      ],
      "stateMutability": "view",
      "type": "function"
    },
    {
      "inputs": [
        {
          "internalType": "uint256",
          "name": "tokenId",
          "type": "uint256"
        }
      ],
      "name": "ownerOf",
      "outputs": [
        {
          "internalType": "address",
          "name": "",
          "type": "address"
        }
      ],
      "stateMutability": "view",
      "type": "function"
    },
    {
      "inputs": [
        {
          "internalType": "address",
          "name": "from",
          "type": "address"
        },
        {
          "internalType": "address",
          "name": "to",
          "type": "address"
        },
        {
          "internalType": "uint256",
          "name": "tokenId",
          "type": "uint256"
        }
      ],
      "name": "safeTransferFrom",
      "outputs": [],
      "stateMutability": "nonpayable",
      "type": "function"
    },
    {
      "inputs": [
        {
          "internalType": "address",
          "name": "from",
          "type": "address"
        },
        {
          "internalType": "address",
          "name": "to",
          "type": "address"
        },
        {
          "internalType": "uint256",
          "name": "tokenId",
          "type": "uint256"
        },
        {
          "internalType": "bytes",
          "name": "_data",
          "type": "bytes"
        }
      ],
      "name": "safeTransferFrom",
      "outputs": [],
      "stateMutability": "nonpayable",
      "type": "function"
    },
    {
      "inputs": [
        {
          "internalType": "address",
          "name": "operator",
          "type": "address"
        },
        {
          "internalType": "bool",
          "name": "approved",
          "type": "bool"
        }
      ],
      "name": "setApprovalForAll",
      "outputs": [],
      "stateMutability": "nonpayable",
      "type": "function"
    },
    {
      "inputs": [
        {
          "internalType": "bytes4",
          "name": "interfaceId",
          "type": "bytes4"
        }
      ],
      "name": "supportsInterface",
      "outputs": [
        {
          "internalType": "bool",
          "name": "",
          "type": "bool"
        }
      ],
      "stateMutability": "view",
      "type": "function"
    },
    {
      "inputs": [],
      "name": "symbol",
      "outputs": [
        {
          "internalType": "string",
          "name": "",
          "type": "string"
        }
      ],
      "stateMutability": "view",
      "type": "function"
    },
    {
      "inputs": [
        {
          "internalType": "uint256",
          "name": "tokenId",
          "type": "uint256"
        }
      ],
      "name": "tokenURI",
      "outputs": [
        {
          "internalType": "string",
          "name": "",
          "type": "string"
        }
      ],
      "stateMutability": "view",
      "type": "function"
    },
    {
      "inputs": [
        {
          "internalType": "address",
          "name": "from",
          "type": "address"
        },
        {
          "internalType": "address",
          "name": "to",
          "type": "address"
        },
        {
          "internalType": "uint256",
          "name": "tokenId",
          "type": "uint256"
        }
      ],
      "name": "transferFrom",
      "outputs": [],
      "stateMutability": "nonpayable",
      "type": "function"
    },
    {
      "inputs": [
        {
          "internalType": "address",
          "name": "recipient",
          "type": "address"
        },
        {
          "internalType": "string",
          "name": "hash",
          "type": "string"
        },
        {
          "internalType": "string",
          "name": "metadata",
          "type": "string"
        }
      ],
      "name": "awardItem",
      "outputs": [
        {
          "internalType": "uint256",
          "name": "",
          "type": "uint256"
        }
      ],
      "stateMutability": "nonpayable",
      "type": "function"
    }
  ],
  "bytecode": "0x60806040523480156200001157600080fd5b50604080518082018252601081526f29b2bcb4b539a1b7b63632b1ba34b7b760811b602080830191825283518085019094526003845262554e4160e81b908401528151919291620000659160009162000084565b5080516200007b90600190602084019062000084565b50505062000167565b82805462000092906200012a565b90600052602060002090601f016020900481019282620000b6576000855562000101565b82601f10620000d157805160ff191683800117855562000101565b8280016001018555821562000101579182015b8281111562000101578251825591602001919060010190620000e4565b506200010f92915062000113565b5090565b5b808211156200010f576000815560010162000114565b6002810460018216806200013f57607f821691505b602082108114156200016157634e487b7160e01b600052602260045260246000fd5b50919050565b61186380620001776000396000f3fe608060405234801561001057600080fd5b50600436106100ea5760003560e01c806370a082311161008c578063a22cb46511610066578063a22cb465146101d6578063b88d4fde146101e9578063c87b56dd146101fc578063e985e9c51461020f576100ea565b806370a082311461019b5780638bfaf101146101bb57806395d89b41146101ce576100ea565b8063095ea7b3116100c8578063095ea7b31461014d57806323b872dd1461016257806342842e0e146101755780636352211e14610188576100ea565b806301ffc9a7146100ef57806306fdde0314610118578063081812fc1461012d575b600080fd5b6101026100fd366004611134565b610222565b60405161010f919061124c565b60405180910390f35b61012061026a565b60405161010f9190611257565b61014061013b36600461116c565b6102fc565b60405161010f91906111fb565b61016061015b36600461110b565b610348565b005b610160610170366004610fac565b6103e0565b610160610183366004610fac565b610418565b61014061019636600461116c565b610433565b6101ae6101a9366004610f60565b610468565b60405161010f91906116f0565b6101ae6101c936600461109a565b6104ac565b610120610530565b6101606101e4366004611060565b61053f565b6101606101f7366004610fe7565b610555565b61012061020a36600461116c565b610594565b61010261021d366004610f7a565b6106ad565b60006001600160e01b031982166380ac58cd60e01b148061025357506001600160e01b03198216635b5e139f60e01b145b806102625750610262826106db565b90505b919050565b60606000805461027990611768565b80601f01602080910402602001604051908101604052809291908181526020018280546102a590611768565b80156102f25780601f106102c7576101008083540402835291602001916102f2565b820191906000526020600020905b8154815290600101906020018083116102d557829003601f168201915b5050505050905090565b6000610307826106f4565b61032c5760405162461bcd60e51b8152600401610323906115c3565b60405180910390fd5b506000908152600460205260409020546001600160a01b031690565b600061035382610433565b9050806001600160a01b0316836001600160a01b031614156103875760405162461bcd60e51b81526004016103239061165e565b806001600160a01b0316610399610711565b6001600160a01b031614806103b557506103b58161021d610711565b6103d15760405162461bcd60e51b8152600401610323906113ff565b6103db8383610715565b505050565b6103f16103eb610711565b82610783565b61040d5760405162461bcd60e51b81526004016103239061169f565b6103db838383610800565b6103db83838360405180602001604052806000815250610555565b6000818152600260205260408120546001600160a01b0316806102625760405162461bcd60e51b8152600401610323906114a6565b60006001600160a01b0382166104905760405162461bcd60e51b81526004016103239061145c565b506001600160a01b031660009081526003602052604090205490565b60006008836040516104be91906111b0565b908152602001604051809103902054600114156104da57600080fd5b60016008846040516104ec91906111b0565b908152604051908190036020019020556105066007610933565b6000610512600761093c565b905061051e8582610940565b6105288184610a27565b949350505050565b60606001805461027990611768565b61055161054a610711565b8383610a6b565b5050565b610566610560610711565b83610783565b6105825760405162461bcd60e51b81526004016103239061169f565b61058e84848484610b0e565b50505050565b606061059f826106f4565b6105bb5760405162461bcd60e51b815260040161032390611572565b600082815260066020526040812080546105d490611768565b80601f016020809104026020016040519081016040528092919081815260200182805461060090611768565b801561064d5780601f106106225761010080835404028352916020019161064d565b820191906000526020600020905b81548152906001019060200180831161063057829003601f168201915b50505050509050600061065e610b41565b905080516000141561067257509050610265565b8151156106a457808260405160200161068c9291906111cc565b60405160208183030381529060405292505050610265565b61052884610b53565b6001600160a01b03918216600090815260056020908152604080832093909416825291909152205460ff1690565b6001600160e01b031981166301ffc9a760e01b14919050565b6000908152600260205260409020546001600160a01b0316151590565b3390565b600081815260046020526040902080546001600160a01b0319166001600160a01b038416908117909155819061074a82610433565b6001600160a01b03167f8c5be1e5ebec7d5bd14f71427d1e84f3dd0314c0f7b2291e5b200ac8c7c3b92560405160405180910390a45050565b600061078e826106f4565b6107aa5760405162461bcd60e51b8152600401610323906113b3565b60006107b583610433565b9050806001600160a01b0316846001600160a01b031614806107f05750836001600160a01b03166107e5846102fc565b6001600160a01b0316145b80610528575061052881856106ad565b826001600160a01b031661081382610433565b6001600160a01b0316146108395760405162461bcd60e51b8152600401610323906112bc565b6001600160a01b03821661085f5760405162461bcd60e51b815260040161032390611338565b61086a8383836103db565b610875600082610715565b6001600160a01b038316600090815260036020526040812080546001929061089e908490611725565b90915550506001600160a01b03821660009081526003602052604081208054600192906108cc9084906116f9565b909155505060008181526002602052604080822080546001600160a01b0319166001600160a01b0386811691821790925591518493918716917fddf252ad1be2c89b69c2b068fc378daa952ba7f163c4a11628f55a4df523b3ef91a46103db8383836103db565b80546001019055565b5490565b6001600160a01b0382166109665760405162461bcd60e51b81526004016103239061153d565b61096f816106f4565b1561098c5760405162461bcd60e51b815260040161032390611301565b610998600083836103db565b6001600160a01b03821660009081526003602052604081208054600192906109c19084906116f9565b909155505060008181526002602052604080822080546001600160a01b0319166001600160a01b03861690811790915590518392907fddf252ad1be2c89b69c2b068fc378daa952ba7f163c4a11628f55a4df523b3ef908290a4610551600083836103db565b610a30826106f4565b610a4c5760405162461bcd60e51b8152600401610323906114ef565b600082815260066020908152604090912082516103db92840190610e1b565b816001600160a01b0316836001600160a01b03161415610a9d5760405162461bcd60e51b81526004016103239061137c565b6001600160a01b0383811660008181526005602090815260408083209487168084529490915290819020805460ff1916851515179055517f17307eab39ab6107e8899845ad3d59bd9653f200f220920489ca2b5937696c3190610b0190859061124c565b60405180910390a3505050565b610b19848484610800565b610b2584848484610bd6565b61058e5760405162461bcd60e51b81526004016103239061126a565b60408051602081019091526000815290565b6060610b5e826106f4565b610b7a5760405162461bcd60e51b81526004016103239061160f565b6000610b84610b41565b90506000815111610ba45760405180602001604052806000815250610bcf565b80610bae84610cf1565b604051602001610bbf9291906111cc565b6040516020818303038152906040525b9392505050565b6000610bea846001600160a01b0316610e0c565b15610ce657836001600160a01b031663150b7a02610c06610711565b8786866040518563ffffffff1660e01b8152600401610c28949392919061120f565b602060405180830381600087803b158015610c4257600080fd5b505af1925050508015610c72575060408051601f3d908101601f19168201909252610c6f91810190611150565b60015b610ccc573d808015610ca0576040519150601f19603f3d011682016040523d82523d6000602084013e610ca5565b606091505b508051610cc45760405162461bcd60e51b81526004016103239061126a565b805181602001fd5b6001600160e01b031916630a85bd0160e11b149050610528565b506001949350505050565b606081610d1657506040805180820190915260018152600360fc1b6020820152610265565b8160005b8115610d405780610d2a816117a3565b9150610d399050600a83611711565b9150610d1a565b60008167ffffffffffffffff811115610d6957634e487b7160e01b600052604160045260246000fd5b6040519080825280601f01601f191660200182016040528015610d93576020820181803683370190505b5090505b841561052857610da8600183611725565b9150610db5600a866117be565b610dc09060306116f9565b60f81b818381518110610de357634e487b7160e01b600052603260045260246000fd5b60200101906001600160f81b031916908160001a905350610e05600a86611711565b9450610d97565b6001600160a01b03163b151590565b828054610e2790611768565b90600052602060002090601f016020900481019282610e495760008555610e8f565b82601f10610e6257805160ff1916838001178555610e8f565b82800160010185558215610e8f579182015b82811115610e8f578251825591602001919060010190610e74565b50610e9b929150610e9f565b5090565b5b80821115610e9b5760008155600101610ea0565b600067ffffffffffffffff80841115610ecf57610ecf6117fe565b604051601f8501601f19908116603f01168101908282118183101715610ef757610ef76117fe565b81604052809350858152868686011115610f1057600080fd5b858560208301376000602087830101525050509392505050565b80356001600160a01b038116811461026557600080fd5b600082601f830112610f51578081fd5b610bcf83833560208501610eb4565b600060208284031215610f71578081fd5b610bcf82610f2a565b60008060408385031215610f8c578081fd5b610f9583610f2a565b9150610fa360208401610f2a565b90509250929050565b600080600060608486031215610fc0578081fd5b610fc984610f2a565b9250610fd760208501610f2a565b9150604084013590509250925092565b60008060008060808587031215610ffc578081fd5b61100585610f2a565b935061101360208601610f2a565b925060408501359150606085013567ffffffffffffffff811115611035578182fd5b8501601f81018713611045578182fd5b61105487823560208401610eb4565b91505092959194509250565b60008060408385031215611072578182fd5b61107b83610f2a565b91506020830135801515811461108f578182fd5b809150509250929050565b6000806000606084860312156110ae578283fd5b6110b784610f2a565b9250602084013567ffffffffffffffff808211156110d3578384fd5b6110df87838801610f41565b935060408601359150808211156110f4578283fd5b5061110186828701610f41565b9150509250925092565b6000806040838503121561111d578182fd5b61112683610f2a565b946020939093013593505050565b600060208284031215611145578081fd5b8135610bcf81611814565b600060208284031215611161578081fd5b8151610bcf81611814565b60006020828403121561117d578081fd5b5035919050565b6000815180845261119c81602086016020860161173c565b601f01601f19169290920160200192915050565b600082516111c281846020870161173c565b9190910192915050565b600083516111de81846020880161173c565b8351908301906111f281836020880161173c565b01949350505050565b6001600160a01b0391909116815260200190565b6001600160a01b038581168252841660208201526040810183905260806060820181905260009061124290830184611184565b9695505050505050565b901515815260200190565b600060208252610bcf6020830184611184565b60208082526032908201527f4552433732313a207472616e7366657220746f206e6f6e20455243373231526560408201527131b2b4bb32b91034b6b83632b6b2b73a32b960711b606082015260800190565b60208082526025908201527f4552433732313a207472616e736665722066726f6d20696e636f72726563742060408201526437bbb732b960d91b606082015260800190565b6020808252601c908201527f4552433732313a20746f6b656e20616c7265616479206d696e74656400000000604082015260600190565b60208082526024908201527f4552433732313a207472616e7366657220746f20746865207a65726f206164646040820152637265737360e01b606082015260800190565b60208082526019908201527f4552433732313a20617070726f766520746f2063616c6c657200000000000000604082015260600190565b6020808252602c908201527f4552433732313a206f70657261746f7220717565727920666f72206e6f6e657860408201526b34b9ba32b73a103a37b5b2b760a11b606082015260800190565b60208082526038908201527f4552433732313a20617070726f76652063616c6c6572206973206e6f74206f7760408201527f6e6572206e6f7220617070726f76656420666f7220616c6c0000000000000000606082015260800190565b6020808252602a908201527f4552433732313a2062616c616e636520717565727920666f7220746865207a65604082015269726f206164647265737360b01b606082015260800190565b60208082526029908201527f4552433732313a206f776e657220717565727920666f72206e6f6e657869737460408201526832b73a103a37b5b2b760b91b606082015260800190565b6020808252602e908201527f45524337323155524953746f726167653a2055524920736574206f66206e6f6e60408201526d32bc34b9ba32b73a103a37b5b2b760911b606082015260800190565b6020808252818101527f4552433732313a206d696e7420746f20746865207a65726f2061646472657373604082015260600190565b60208082526031908201527f45524337323155524953746f726167653a2055524920717565727920666f72206040820152703737b732bc34b9ba32b73a103a37b5b2b760791b606082015260800190565b6020808252602c908201527f4552433732313a20617070726f76656420717565727920666f72206e6f6e657860408201526b34b9ba32b73a103a37b5b2b760a11b606082015260800190565b6020808252602f908201527f4552433732314d657461646174613a2055524920717565727920666f72206e6f60408201526e3732bc34b9ba32b73a103a37b5b2b760891b606082015260800190565b60208082526021908201527f4552433732313a20617070726f76616c20746f2063757272656e74206f776e656040820152603960f91b606082015260800190565b60208082526031908201527f4552433732313a207472616e736665722063616c6c6572206973206e6f74206f6040820152701ddb995c881b9bdc88185c1c1c9bdd9959607a1b606082015260800190565b90815260200190565b6000821982111561170c5761170c6117d2565b500190565b600082611720576117206117e8565b500490565b600082821015611737576117376117d2565b500390565b60005b8381101561175757818101518382015260200161173f565b8381111561058e5750506000910152565b60028104600182168061177c57607f821691505b6020821081141561179d57634e487b7160e01b600052602260045260246000fd5b50919050565b60006000198214156117b7576117b76117d2565b5060010190565b6000826117cd576117cd6117e8565b500690565b634e487b7160e01b600052601160045260246000fd5b634e487b7160e01b600052601260045260246000fd5b634e487b7160e01b600052604160045260246000fd5b6001600160e01b03198116811461182a57600080fd5b5056fea2646970667358221220c2e70ef0b32c29ecb99e059ab91dc02c8de718f3b23987edf94bc33aa5dbb7be64736f6c63430008010033",
  "immutableReferences": {},
  "source": "// SPDX-License-Identifier: GPL-3.0\r\n\r\npragma solidity >=0.6.0 <0.9.0;\r\n\r\nimport \"@openzeppelin/contracts/token/ERC721/extensions/ERC721URIStorage.sol\";\r\nimport \"@openzeppelin/contracts/utils/Counters.sol\";\r\n\r\n\r\ncontract SeyijsCollection is ERC721URIStorage{\r\n    using Counters for Counters.Counter;\r\n    Counters.Counter private _tokenIds;\r\n    mapping(string => uint) hashes;\r\n    constructor()  ERC721(\"SeyijsCollection\", \"UNA\") {}\r\n\r\n    function awardItem(address recipient, string memory hash, string memory metadata) public returns(uint){\r\n        require(hashes[hash] != 1);\r\n\r\n        hashes[hash] = 1;\r\n\r\n        _tokenIds.increment();\r\n\r\n        uint newItemId = _tokenIds.current();\r\n\r\n        _mint(recipient, newItemId);\r\n\r\n        _setTokenURI(newItemId,metadata);\r\n\r\n        return newItemId;\r\n    }\r\n}",
  "sourcePath": "D:\\HP ENVY 15\\MY PROJECT\\WEB\\SOLIDITY\\nft-tutorial\\contracts\\SeyijsCollection.sol",
  "compiler": {
    "name": "solc",
    "version": "0.8.1+commit.df193b15.Emscripten.clang"
  },
  "schemaVersion": "3.4.4",
  "updatedAt": "2022-03-10T21:15:37.532Z",
  "devdoc": {
    "kind": "dev",
    "methods": {
      "approve(address,uint256)": {
        "details": "See {IERC721-approve}."
      },
      "balanceOf(address)": {
        "details": "See {IERC721-balanceOf}."
      },
      "getApproved(uint256)": {
        "details": "See {IERC721-getApproved}."
      },
      "isApprovedForAll(address,address)": {
        "details": "See {IERC721-isApprovedForAll}."
      },
      "name()": {
        "details": "See {IERC721Metadata-name}."
      },
      "ownerOf(uint256)": {
        "details": "See {IERC721-ownerOf}."
      },
      "safeTransferFrom(address,address,uint256)": {
        "details": "See {IERC721-safeTransferFrom}."
      },
      "safeTransferFrom(address,address,uint256,bytes)": {
        "details": "See {IERC721-safeTransferFrom}."
      },
      "setApprovalForAll(address,bool)": {
        "details": "See {IERC721-setApprovalForAll}."
      },
      "supportsInterface(bytes4)": {
        "details": "See {IERC165-supportsInterface}."
      },
      "symbol()": {
        "details": "See {IERC721Metadata-symbol}."
      },
      "tokenURI(uint256)": {
        "details": "See {IERC721Metadata-tokenURI}."
      },
      "transferFrom(address,address,uint256)": {
        "details": "See {IERC721-transferFrom}."
      }
    },
    "version": 1
  },
  "userdoc": {
    "kind": "user",
    "methods": {},
    "version": 1
  }
}